:020000040800F2
:10000000000004200D050008650300086D030008CA
:100010005D0500085D0500085D05000800000000A2
:100020000000000000000000000000005D05000866
:100030005D050008000000005D0500085D05000882
:100040005D0500085D0500085D0500085D05000808
:100050005D0500085D0500085D0500085D050008F8
:100060005D0500085D0500085D0500085D050008E8
:100070005D0500085D0500085D0500085D050008D8
:100080005D0500085D0500085D0500085D050008C8
:100090005D0500085D0500085D0500085D050008B8
:1000A0005D0500085D0500085D0500085D050008A8
:1000B0005D0500085D0500085D0500085D05000898
:1000C0005D0500085D0500085D0500085D05000888
:1000D0005D0500085D0500085D0500085D05000878
:1000E0002D0300085D0500085D0500085D0500089A
:1000F0005D0500085D0500085D0500085D05000858
:100100005D0500085D0500085D0500085D05000847
:100110005D0500085D0500085D0500085D05000837
:100120005D0500085D0500085D0500085D05000827
:100130005D05000800000000000000000000000055
:100140000000000000000000000000005D05000845
:100150005D0500085D0500085D0500085D050008F7
:100160005D0500085D0500085D0500085D050008E7
:100170005D0500085D0500080000000000000000AB
:100180005D0500085D0500085D0500085D050008C7
:100190005D0500085D050008000000005D05000821
:1001A0000000000000000000000000005D050008E5
:1001B0005D0500085D05000800000000000000006B
:1001C000000000000000000000000000000000002F
:1001D0000000000000000000000000005D050008B5
:1001E00080B483B000AF0346FB7197F90730002B52
:1001F0000BDBFB7903F01F02064997F907305B0917
:10020000012000FA02F241F8232000BF0C37BD465E
:1002100080BC704700E100E080B483B000AF78603C
:1002200000BF7B685A1E7A60002BFAD100BF00BF66
:100230000C37BD4680BC704780B500AF00F020F899
:1002400000F048F800BFFDE780B400AF0A4B1B6B1D
:10025000094A43F002031363084B1B68074A23F063
:1002600003031360054B1B68044A43F0010313604A
:1002700000BFBD4680BC7047003802400004024009
:1002800080B400AF104B1B6B0F4A43F002031363A3
:100290000E4B1B680D4A23F4404313600B4B1B6845
:1002A0000A4A43F480431360074B1B6B064A43F032
:1002B00004031363064B1B68054A23F04063136075
:1002C00000BFBD4680BC70470038024000040240B9
:1002D0000008024080B500AF114B5B6C104A43F43C
:1002E000804353640F4B5B690E4A23F0F003536164
:1002F0000C4B5B690B4A43F0200353610A4BDB68EC
:10030000094A43F40053D360074B1B68064A43F481
:10031000005313602820FFF763FF00BF80BD00BFBC
:100320000038024000380140003C014080B400AF7A
:100330000A4B5B6903F40053002B0BD0074B5B693E
:10034000064A43F400535361054B5B69044A83F04A
:100350008003536100BFBD4680BC7047003C014034
:100360000004024080B400AF00BFFDE780B400AFDE
:1003700000BFFDE780B400AF00BFBD4680BC704742
:1003800080B487B000AF00233B6100237B61022370
:10039000FB600023BB6002237B60344B9B6803F04F
:1003A0000C033B613B69082B11D03B69082B44D8F7
:1003B0003B69002B03D03B69042B04D03DE02C4B60
:1003C0002C4A1A603DE02A4B2B4A1A6039E0274B31
:1003D0005B689B0D03F00103BB60244B5B6803F07B
:1003E0003F037B60BB68002B0CD0234A7B68B2FBC9
:1003F000F3F31E4A52689209C2F3080202FB03F3A8
:100400007B610BE01B4A7B68B2FBF3F3174A52682F
:100410009209C2F3080202FB03F37B61134B5B6892
:100420001B0C03F0030301335B00FB607A69FB687C
:10043000B2FBF3F30E4A136003E00D4B0D4A1A6052
:1004400000BF0A4B9B681B0903F00F030B4AD35CE8
:100450003B61074B1A683B6922FA03F3044A1360B5
:1004600000BF1C37BD4680BC704700BF003802404B
:10047000000000200024F40040787D019806000868
:100480000348044B834202D0034B03B11847704723
:100490000800002008000020000000000548064B6E
:1004A0001B1AD90F01EBA301491002D0034B03B172
:1004B00018477047080000200800002000000000D6
:1004C00010B5064C237843B9FFF7DAFF044B13B19C
:1004D0000448AFF300800123237010BD0800002002
:1004E000000000008006000808B5054B1BB1054957
:1004F0000548AFF30080BDE80840FFF7CFBF00BF5D
:10050000000000000C00002080060008DFF834D056
:10051000FFF730FF0C480D490D4A002302E0D45884
:10052000C4500433C4188C42F9D30A4A0A4C00233D
:1005300001E013600432A242FBD300F011F8FFF790
:100540007BFE70470000042000000020080000200F
:10055000BC06000808000020BC010020FEE70000E7
:1005600070B50F4B0F4DAB42A3EB050607D0B6108D
:10057000002455F8043B01349847A642F9D800F00E
:100580007FF8094D094B5E1BAB424FEAA60606D029
:10059000002455F8043B01349847A642F9D870BDB1
:1005A000B0060008B0060008B0060008B80600084B
:1005B000704700BF704700BF024B13B1024800F004
:1005C00005B8704700000000D90500080023014667
:1005D0001A46184600F014B838B5074D074C2C1BC6
:1005E000A41005D0013C55F8043D9847002CF9D1E2
:1005F000BDE8384000F04AB8BC060008B80600085C
:100600002DE9F8431B4D0646286898460F4691464B
:10061000FFF7CEFF184B1C681CB3286865681F2DB8
:1006200022DC4EB96B1C0235636044F82570FFF77D
:10063000C1FF0020BDE8F88304EB85010123C1F868
:100640008890D4F88821AB401A43022EC4F8882140
:10065000C1F80881E6D1D4F88C211A43C4F88C2162
:10066000E0E7064C1C60D8E7FFF7A4FF4FF0FF302F
:10067000E0E700BF04000020280000202C0000203C
:10068000F8B500BFF8BC08BC9E467047F8B500BF7F
:08069000F8BC08BC9E4670474F
:10069800000000000000000001020304060708092A
:0806A800000000000102030440
:0806B000B9050008E904000887
:0406B800C104000871
:0806BC000024F40024000020DA
:040000050800050DDD
:00000001FF
