:020000040800F2
:1000000000000420090400086102000869020008D9
:1000100059040008590400085904000800000000B1
:10002000000000000000000000000000590400086B
:100030005904000800000000590400085904000891
:10004000590400085904000859040008590400081C
:10005000590400085904000859040008590400080C
:1000600059040008590400085904000859040008FC
:1000700059040008590400085904000859040008EC
:1000800059040008590400085904000859040008DC
:1000900059040008590400085904000859040008CC
:1000A00059040008590400085904000859040008BC
:1000B00059040008590400085904000859040008AC
:1000C000590400085904000859040008590400089C
:1000D000590400085904000859040008590400088C
:1000E000590400085904000859040008590400087C
:1000F000590400085904000859040008590400086C
:10010000590400085904000859040008590400085B
:10011000590400085904000859040008590400084B
:10012000590400085904000859040008590400083B
:10013000590400080000000000000000000000005A
:10014000000000000000000000000000590400084A
:10015000590400085904000859040008590400080B
:1001600059040008590400085904000859040008FB
:1001700059040008590400080000000000000000B5
:1001800059040008590400085904000859040008DB
:100190005904000859040008000000005904000830
:1001A00000000000000000000000000059040008EA
:1001B0005904000859040008000000000000000075
:1001C000000000000000000000000000000000002F
:1001D00000000000000000000000000059040008BA
:1001E00080B483B000AF786000BF7B685A1E7A602D
:1001F000002BFAD100BF00BF0C37BD4680BC704752
:1002000080B500AF00F010F8054B5B69044A83F03D
:10021000010353610348FFF7E3FF00BFF4E700BFAA
:100220000004024040420F0080B400AF0A4B1B6B39
:10023000094A43F002031363084B1B68074A23F083
:1002400003031360054B1B68044A43F0010313606A
:1002500000BFBD4680BC7047003802400004024029
:1002600080B400AF00BFFDE780B400AF00BFFDE782
:1002700080B400AF00BFBD4680BC704780B487B07B
:1002800000AF00233B6100237B610223FB6000235E
:10029000BB6002237B60344B9B6803F00C033B6123
:1002A0003B69082B11D03B69082B44D83B69002BD4
:1002B00003D03B69042B04D03DE02C4B2C4A1A6040
:1002C0003DE02A4B2B4A1A6039E0274B5B689B0DB7
:1002D00003F00103BB60244B5B6803F03F037B60CA
:1002E000BB68002B0CD0234A7B68B2FBF3F31E4A99
:1002F00052689209C2F3080202FB03F37B610BE030
:100300001B4A7B68B2FBF3F3174A52689209C2F3A7
:10031000080202FB03F37B61134B5B681B0C03F0C9
:10032000030301335B00FB607A69FB68B2FBF3F304
:100330000E4A136003E00D4B0D4A1A6000BF0A4BD2
:100340009B681B0903F00F030B4AD35C3B61074B0F
:100350001A683B6922FA03F3044A136000BF1C3792
:10036000BD4680BC704700BF00380240000000203E
:100370000024F40040787D01940500080348044BF4
:10038000834202D0034B03B1184770470800002096
:1003900008000020000000000548064B1B1AD90F7A
:1003A00001EBA301491002D0034B03B1184770477A
:1003B00008000020080000200000000010B5064CD6
:1003C000237843B9FFF7DAFF044B13B10448AFF3C6
:1003D00000800123237010BD0800002000000000F1
:1003E0007C05000808B5054B1BB105490548AFF36E
:1003F0000080BDE80840FFF7CFBF00BF000000004D
:100400000C0000207C050008DFF834D0FFF730FF37
:100410000C480D490D4A002302E0D458C45004335F
:10042000C4188C42F9D30A4A0A4C002301E0136035
:100430000432A242FBD300F011F8FFF7E1FE70474F
:10044000000004200000002008000020B80500087B
:1004500008000020BC010020FEE7000070B50F4B33
:100460000F4DAB42A3EB050607D0B610002455F89C
:10047000043B01349847A642F9D800F07FF8094DB3
:10048000094B5E1BAB424FEAA60606D0002455F886
:10049000043B01349847A642F9D870BDAC0500086A
:1004A000AC050008AC050008B4050008704700BFA3
:1004B000704700BF024B13B1024800F005B8704707
:1004C00000000000D5040008002301461A46184623
:1004D00000F014B838B5074D074C2C1BA41005D0FC
:1004E000013C55F8043D9847002CF9D1BDE838404F
:1004F00000F04AB8B8050008B40500082DE9F84333
:100500001B4D0646286898460F469146FFF7CEFFDA
:10051000184B1C681CB3286865681F2D22DC4EB977
:100520006B1C0235636044F82570FFF7C1FF0020A3
:10053000BDE8F88304EB85010123C1F88890D4F865
:100540008821AB401A43022EC4F88821C1F80881E3
:10055000E6D1D4F88C211A43C4F88C21E0E7064C8C
:100560001C60D8E7FFF7A4FF4FF0FF30E0E700BFC3
:1005700004000020280000202C000020F8B500BF57
:10058000F8BC08BC9E467047F8B500BFF8BC08BC74
:040590009E467047CC
:10059400000000000000000001020304060708092F
:0805A400000000000102030445
:0805AC00B5040008E503000896
:0405B400BD0300087B
:0805B8000024F40024000020DF
:0400000508000409E2
:00000001FF
