:020000040800F2
:1000000000000420F1030008D5020008DD0200080A
:1000100041040008410400084104000800000000F9
:100020000000000000000000000000004104000883
:1000300041040008000000004104000841040008D9
:10004000410400084104000841040008410400087C
:10005000410400084104000841040008410400086C
:10006000410400084104000841040008410400085C
:10007000410400084104000841040008410400084C
:10008000410400084104000841040008410400083C
:10009000410400084104000841040008410400082C
:1000A000410400084104000841040008410400081C
:1000B000410400084104000841040008410400080C
:1000C00041040008410400084104000841040008FC
:1000D00041040008410400084104000841040008EC
:1000E00041040008410400084104000841040008DC
:1000F00041040008410400084104000841040008CC
:1001000041040008410400084104000841040008BB
:1001100041040008410400084104000841040008AB
:10012000410400084104000841040008410400089B
:100130004104000800000000000000000000000072
:100140000000000000000000000000004104000862
:10015000410400084104000841040008410400086B
:10016000410400084104000841040008410400085B
:1001700041040008410400080000000000000000E5
:10018000410400084104000841040008410400083B
:100190004104000841040008000000004104000878
:1001A0000000000000000000000000004104000802
:1001B00041040008410400080000000000000000A5
:1001C000000000000000000000000000000000002F
:1001D00000000000000000000000000041040008D2
:1001E0000348044B834202D0034B03B118477047C6
:1001F0000800002008000020000000000548064B11
:100200001B1AD90F01EBA301491002D0034B03B114
:100210001847704708000020080000200000000078
:1002200010B5064C237843B9FFF7DAFF044B13B13E
:100230000448AFF300800123237010BD08000020A4
:10024000000000006405000808B5044B1BB1044918
:100250000448AFF30080BDE80840CFE7000000008D
:100260000C0000206405000880B483B000AF786003
:1002700000BF7B685A1E7A60002BFAD100BF00BF16
:100280000C37BD4680BC704780B500AF0E4B1B6B72
:100290000D4A43F0020313630C4B1B680B4A23F017
:1002A00003031360094B1B68084A43F00103136002
:1002B000064B5B69054A83F0010353610448FFF76D
:1002C000D3FF00BFF4E700BF003802400004024043
:1002D00040420F0080B400AF00BFFDE780B400AF24
:1002E00000BFFDE780B400AF00BFBD4680BC7047D3
:1002F00080B487B000AF00233B6100237B61022301
:10030000FB600023BB6002237B60344B9B6803F0DF
:100310000C033B613B69082B11D03B69082B44D887
:100320003B69002B03D03B69042B04D03DE02C4BF0
:100330002C4A1A603DE02A4B2B4A1A6039E0274BC1
:100340005B689B0D03F00103BB60244B5B6803F00B
:100350003F037B60BB68002B0CD0234A7B68B2FB59
:10036000F3F31E4A52689209C2F3080202FB03F338
:100370007B610BE01B4A7B68B2FBF3F3174A5268C0
:100380009209C2F3080202FB03F37B61134B5B6823
:100390001B0C03F0030301335B00FB607A69FB680D
:1003A000B2FBF3F30E4A136003E00D4B0D4A1A60E3
:1003B00000BF0A4B9B681B0903F00F030B4AD35C79
:1003C0003B61074B1A683B6922FA03F3044A136046
:1003D00000BF1C37BD4680BC704700BF00380240DC
:1003E000000000200024F40040787D017C05000816
:1003F000DFF834D0FFF776FF0C480D490D4A002393
:1004000002E0D458C4500433C4188C42F9D30A4AC9
:100410000A4C002301E013600432A242FBD300F037
:1004200017F8FFF731FF704700000420000000209C
:1004300008000020A005000808000020BC010020E2
:10044000FEE70000002301461A46184600F040B8B7
:1004500070B50F4B0F4DAB42A3EB050607D0B6109E
:10046000002455F8043B01349847A642F9D800F01F
:1004700079F8094D094B5E1BAB424FEAA60606D040
:10048000002455F8043B01349847A642F9D870BDC2
:100490009405000894050008940500089C050008D0
:1004A00038B5074D074C2C1BA41005D0013C55F85E
:1004B000043D9847002CF9D1BDE8384000F058B809
:1004C000A00500089C050008704700BF704700BFEA
:1004D0002DE9F8431B4D0646286898460F4691467D
:1004E000FFF7F2FF184B1C681CB3286865681F2DC6
:1004F00022DC4EB96B1C0235636044F82570FFF7AF
:10050000E5FF0020BDE8F88304EB85010123C1F875
:100510008890D4F88821AB401A43022EC4F8882171
:10052000C1F80881E6D1D4F88C211A43C4F88C2193
:10053000E0E7064C1C60D8E7FFF7C8FF4FF0FF303C
:10054000E0E700BF04000020B801002028000020E0
:10055000024B13B10248FFF775BF7047000000005F
:10056000A1040008F8B500BFF8BC08BC9E4670475F
:0C057000F8B500BFF8BC08BC9E46704700
:10057C000000000000000000010203040607080947
:08058C0000000000010203045D
:080594005105000849020008AE
:04059C002102000830
:0805A0000024F40024000020F7
:04000005080003F1FB
:00000001FF
